{
  "contractName": "HealthcareMessaging",
  "abi": [
    {
      "inputs": [],
      "stateMutability": "nonpayable",
      "type": "constructor"
    },
    {
      "anonymous": false,
      "inputs": [
        {
          "indexed": true,
          "internalType": "address",
          "name": "from",
          "type": "address"
        },
        {
          "indexed": true,
          "internalType": "address",
          "name": "to",
          "type": "address"
        },
        {
          "indexed": false,
          "internalType": "uint256",
          "name": "timestamp",
          "type": "uint256"
        }
      ],
      "name": "MessageSent",
      "type": "event"
    },
    {
      "anonymous": false,
      "inputs": [
        {
          "indexed": true,
          "internalType": "address",
          "name": "userAddress",
          "type": "address"
        },
        {
          "indexed": false,
          "internalType": "enum HealthcareMessaging.Role",
          "name": "role",
          "type": "uint8"
        }
      ],
      "name": "UserRegistered",
      "type": "event"
    },
    {
      "inputs": [],
      "name": "admin",
      "outputs": [
        {
          "internalType": "address",
          "name": "",
          "type": "address"
        }
      ],
      "stateMutability": "view",
      "type": "function",
      "constant": true
    },
    {
      "inputs": [
        {
          "internalType": "address",
          "name": "",
          "type": "address"
        },
        {
          "internalType": "uint256",
          "name": "",
          "type": "uint256"
        }
      ],
      "name": "messages",
      "outputs": [
        {
          "internalType": "address",
          "name": "sender",
          "type": "address"
        },
        {
          "internalType": "address",
          "name": "receiver",
          "type": "address"
        },
        {
          "internalType": "string",
          "name": "content",
          "type": "string"
        },
        {
          "internalType": "uint256",
          "name": "timestamp",
          "type": "uint256"
        }
      ],
      "stateMutability": "view",
      "type": "function",
      "constant": true
    },
    {
      "inputs": [
        {
          "internalType": "address",
          "name": "",
          "type": "address"
        }
      ],
      "name": "users",
      "outputs": [
        {
          "internalType": "address",
          "name": "userAddress",
          "type": "address"
        },
        {
          "internalType": "enum HealthcareMessaging.Role",
          "name": "role",
          "type": "uint8"
        }
      ],
      "stateMutability": "view",
      "type": "function",
      "constant": true
    },
    {
      "inputs": [
        {
          "internalType": "address",
          "name": "userAddress",
          "type": "address"
        },
        {
          "internalType": "enum HealthcareMessaging.Role",
          "name": "role",
          "type": "uint8"
        }
      ],
      "name": "registerUser",
      "outputs": [],
      "stateMutability": "nonpayable",
      "type": "function"
    },
    {
      "inputs": [
        {
          "internalType": "address",
          "name": "receiver",
          "type": "address"
        },
        {
          "internalType": "string",
          "name": "content",
          "type": "string"
        }
      ],
      "name": "sendMessage",
      "outputs": [],
      "stateMutability": "nonpayable",
      "type": "function"
    },
    {
      "inputs": [],
      "name": "getMessages",
      "outputs": [
        {
          "components": [
            {
              "internalType": "address",
              "name": "sender",
              "type": "address"
            },
            {
              "internalType": "address",
              "name": "receiver",
              "type": "address"
            },
            {
              "internalType": "string",
              "name": "content",
              "type": "string"
            },
            {
              "internalType": "uint256",
              "name": "timestamp",
              "type": "uint256"
            }
          ],
          "internalType": "struct HealthcareMessaging.Message[]",
          "name": "",
          "type": "tuple[]"
        }
      ],
      "stateMutability": "view",
      "type": "function",
      "constant": true
    }
  ],
  "bytecode": "0x60806040523480156200001157600080fd5b5033600260006101000a81548173ffffffffffffffffffffffffffffffffffffffff021916908373ffffffffffffffffffffffffffffffffffffffff1602179055506040518060400160405280600260009054906101000a900473ffffffffffffffffffffffffffffffffffffffff1673ffffffffffffffffffffffffffffffffffffffff168152602001600380811115620000d6577f4e487b7100000000000000000000000000000000000000000000000000000000600052602160045260246000fd5b815250600080600260009054906101000a900473ffffffffffffffffffffffffffffffffffffffff1673ffffffffffffffffffffffffffffffffffffffff1673ffffffffffffffffffffffffffffffffffffffff16815260200190815260200160002060008201518160000160006101000a81548173ffffffffffffffffffffffffffffffffffffffff021916908373ffffffffffffffffffffffffffffffffffffffff16021790555060208201518160000160146101000a81548160ff02191690836003811115620001d2577f4e487b7100000000000000000000000000000000000000000000000000000000600052602160045260246000fd5b0217905550905050600260009054906101000a900473ffffffffffffffffffffffffffffffffffffffff1673ffffffffffffffffffffffffffffffffffffffff167f8e18574f8a7333e6a87112742a55853a643e2f0550f4e1a3a2c3f1bb2994441d600360405162000245919062000264565b60405180910390a2620002f0565b6200025e8162000296565b82525050565b60006020820190506200027b600083018462000253565b92915050565b60008190506200029182620002d9565b919050565b6000620002a38262000281565b9050919050565b7f4e487b7100000000000000000000000000000000000000000000000000000000600052602160045260246000fd5b60048110620002ed57620002ec620002aa565b5b50565b61162f80620003006000396000f3fe608060405234801561001057600080fd5b50600436106100625760003560e01c80635ff6cbf3146100675780639e9fa09714610085578063a87430ba146100a1578063c45d9bea146100d2578063de6f24bb14610105578063f851a44014610121575b600080fd5b61006f61013f565b60405161007c9190611295565b60405180910390f35b61009f600480360381019061009a9190610e44565b610425565b005b6100bb60048036038101906100b69190610e1b565b61076c565b6040516100c992919061126c565b60405180910390f35b6100ec60048036038101906100e79190610ed4565b6107bd565b6040516100fc9493929190611220565b60405180910390f35b61011f600480360381019061011a9190610e80565b6108d2565b005b610129610cab565b6040516101369190611205565b60405180910390f35b60606000600381111561017b577f4e487b7100000000000000000000000000000000000000000000000000000000600052602160045260246000fd5b6000803373ffffffffffffffffffffffffffffffffffffffff1673ffffffffffffffffffffffffffffffffffffffff16815260200190815260200160002060000160149054906101000a900460ff166003811115610202577f4e487b7100000000000000000000000000000000000000000000000000000000600052602160045260246000fd5b1415610243576040517f08c379a000000000000000000000000000000000000000000000000000000000815260040161023a906112f2565b60405180910390fd5b600160003373ffffffffffffffffffffffffffffffffffffffff1673ffffffffffffffffffffffffffffffffffffffff168152602001908152602001600020805480602002602001604051908101604052809291908181526020016000905b8282101561041c57838290600052602060002090600402016040518060800160405290816000820160009054906101000a900473ffffffffffffffffffffffffffffffffffffffff1673ffffffffffffffffffffffffffffffffffffffff1673ffffffffffffffffffffffffffffffffffffffff1681526020016001820160009054906101000a900473ffffffffffffffffffffffffffffffffffffffff1673ffffffffffffffffffffffffffffffffffffffff1673ffffffffffffffffffffffffffffffffffffffff168152602001600282018054610381906114d7565b80601f01602080910402602001604051908101604052809291908181526020018280546103ad906114d7565b80156103fa5780601f106103cf576101008083540402835291602001916103fa565b820191906000526020600020905b8154815290600101906020018083116103dd57829003601f168201915b50505050508152602001600382015481525050815260200190600101906102a2565b50505050905090565b60038081111561045e577f4e487b7100000000000000000000000000000000000000000000000000000000600052602160045260246000fd5b6000803373ffffffffffffffffffffffffffffffffffffffff1673ffffffffffffffffffffffffffffffffffffffff16815260200190815260200160002060000160149054906101000a900460ff1660038111156104e5577f4e487b7100000000000000000000000000000000000000000000000000000000600052602160045260246000fd5b14610525576040517f08c379a000000000000000000000000000000000000000000000000000000000815260040161051c90611312565b60405180910390fd5b6000600381111561055f577f4e487b7100000000000000000000000000000000000000000000000000000000600052602160045260246000fd5b816003811115610598577f4e487b7100000000000000000000000000000000000000000000000000000000600052602160045260246000fd5b14156105d9576040517f08c379a00000000000000000000000000000000000000000000000000000000081526004016105d0906112d2565b60405180910390fd5b60405180604001604052808373ffffffffffffffffffffffffffffffffffffffff168152602001826003811115610639577f4e487b7100000000000000000000000000000000000000000000000000000000600052602160045260246000fd5b8152506000808473ffffffffffffffffffffffffffffffffffffffff1673ffffffffffffffffffffffffffffffffffffffff16815260200190815260200160002060008201518160000160006101000a81548173ffffffffffffffffffffffffffffffffffffffff021916908373ffffffffffffffffffffffffffffffffffffffff16021790555060208201518160000160146101000a81548160ff02191690836003811115610712577f4e487b7100000000000000000000000000000000000000000000000000000000600052602160045260246000fd5b02179055509050508173ffffffffffffffffffffffffffffffffffffffff167f8e18574f8a7333e6a87112742a55853a643e2f0550f4e1a3a2c3f1bb2994441d8260405161076091906112b7565b60405180910390a25050565b60006020528060005260406000206000915090508060000160009054906101000a900473ffffffffffffffffffffffffffffffffffffffff16908060000160149054906101000a900460ff16905082565b600160205281600052604060002081815481106107d957600080fd5b9060005260206000209060040201600091509150508060000160009054906101000a900473ffffffffffffffffffffffffffffffffffffffff16908060010160009054906101000a900473ffffffffffffffffffffffffffffffffffffffff1690806002018054610849906114d7565b80601f0160208091040260200160405190810160405280929190818152602001828054610875906114d7565b80156108c25780601f10610897576101008083540402835291602001916108c2565b820191906000526020600020905b8154815290600101906020018083116108a557829003601f168201915b5050505050908060030154905084565b6000600381111561090c577f4e487b7100000000000000000000000000000000000000000000000000000000600052602160045260246000fd5b6000803373ffffffffffffffffffffffffffffffffffffffff1673ffffffffffffffffffffffffffffffffffffffff16815260200190815260200160002060000160149054906101000a900460ff166003811115610993577f4e487b7100000000000000000000000000000000000000000000000000000000600052602160045260246000fd5b14156109d4576040517f08c379a00000000000000000000000000000000000000000000000000000000081526004016109cb906112f2565b60405180910390fd5b60006003811115610a0e577f4e487b7100000000000000000000000000000000000000000000000000000000600052602160045260246000fd5b6000808473ffffffffffffffffffffffffffffffffffffffff1673ffffffffffffffffffffffffffffffffffffffff16815260200190815260200160002060000160149054906101000a900460ff166003811115610a95577f4e487b7100000000000000000000000000000000000000000000000000000000600052602160045260246000fd5b1415610ad6576040517f08c379a0000000000000000000000000000000000000000000000000000000008152600401610acd90611332565b60405180910390fd5b600160008373ffffffffffffffffffffffffffffffffffffffff1673ffffffffffffffffffffffffffffffffffffffff16815260200190815260200160002060405180608001604052803373ffffffffffffffffffffffffffffffffffffffff1681526020018473ffffffffffffffffffffffffffffffffffffffff16815260200183815260200142815250908060018154018082558091505060019003906000526020600020906004020160009091909190915060008201518160000160006101000a81548173ffffffffffffffffffffffffffffffffffffffff021916908373ffffffffffffffffffffffffffffffffffffffff16021790555060208201518160010160006101000a81548173ffffffffffffffffffffffffffffffffffffffff021916908373ffffffffffffffffffffffffffffffffffffffff1602179055506040820151816002019080519060200190610c35929190610cd1565b506060820151816003015550508173ffffffffffffffffffffffffffffffffffffffff163373ffffffffffffffffffffffffffffffffffffffff167f8e3ce0a37f42bfb0e85f8f02c440ff2843d1182d7f1fce9174f7980e5e9d130c42604051610c9f9190611352565b60405180910390a35050565b600260009054906101000a900473ffffffffffffffffffffffffffffffffffffffff1681565b828054610cdd906114d7565b90600052602060002090601f016020900481019282610cff5760008555610d46565b82601f10610d1857805160ff1916838001178555610d46565b82800160010185558215610d46579182015b82811115610d45578251825591602001919060010190610d2a565b5b509050610d539190610d57565b5090565b5b80821115610d70576000816000905550600101610d58565b5090565b6000610d87610d828461139e565b61136d565b905082815260208101848484011115610d9f57600080fd5b610daa848285611495565b509392505050565b600081359050610dc1816115bb565b92915050565b600081359050610dd6816115d2565b92915050565b600082601f830112610ded57600080fd5b8135610dfd848260208601610d74565b91505092915050565b600081359050610e15816115e2565b92915050565b600060208284031215610e2d57600080fd5b6000610e3b84828501610db2565b91505092915050565b60008060408385031215610e5757600080fd5b6000610e6585828601610db2565b9250506020610e7685828601610dc7565b9150509250929050565b60008060408385031215610e9357600080fd5b6000610ea185828601610db2565b925050602083013567ffffffffffffffff811115610ebe57600080fd5b610eca85828601610ddc565b9150509250929050565b60008060408385031215610ee757600080fd5b6000610ef585828601610db2565b9250506020610f0685828601610e06565b9150509250929050565b6000610f1c8383611184565b905092915050565b610f2d81611434565b82525050565b610f3c81611434565b82525050565b6000610f4d826113de565b610f578185611401565b935083602082028501610f69856113ce565b8060005b85811015610fa55784840389528151610f868582610f10565b9450610f91836113f4565b925060208a01995050600181019050610f6d565b50829750879550505050505092915050565b610fc081611483565b82525050565b6000610fd1826113e9565b610fdb8185611412565b9350610feb8185602086016114a4565b610ff481611596565b840191505092915050565b600061100a826113e9565b6110148185611423565b93506110248185602086016114a4565b61102d81611596565b840191505092915050565b6000611045600c83611423565b91507f496e76616c696420726f6c6500000000000000000000000000000000000000006000830152602082019050919050565b6000611085601d83611423565b91507f596f75206d7573742062652061207265676973746572656420757365720000006000830152602082019050919050565b60006110c5602283611423565b91507f4f6e6c792061646d696e2063616e20706572666f726d2074686973206163746960008301527f6f6e0000000000000000000000000000000000000000000000000000000000006020830152604082019050919050565b600061112b602283611423565b91507f5265636569766572206d7573742062652061207265676973746572656420757360008301527f65720000000000000000000000000000000000000000000000000000000000006020830152604082019050919050565b600060808301600083015161119c6000860182610f24565b5060208301516111af6020860182610f24565b50604083015184820360408601526111c78282610fc6565b91505060608301516111dc60608601826111e7565b508091505092915050565b6111f081611479565b82525050565b6111ff81611479565b82525050565b600060208201905061121a6000830184610f33565b92915050565b60006080820190506112356000830187610f33565b6112426020830186610f33565b81810360408301526112548185610fff565b905061126360608301846111f6565b95945050505050565b60006040820190506112816000830185610f33565b61128e6020830184610fb7565b9392505050565b600060208201905081810360008301526112af8184610f42565b905092915050565b60006020820190506112cc6000830184610fb7565b92915050565b600060208201905081810360008301526112eb81611038565b9050919050565b6000602082019050818103600083015261130b81611078565b9050919050565b6000602082019050818103600083015261132b816110b8565b9050919050565b6000602082019050818103600083015261134b8161111e565b9050919050565b600060208201905061136760008301846111f6565b92915050565b6000604051905081810181811067ffffffffffffffff8211171561139457611393611567565b5b8060405250919050565b600067ffffffffffffffff8211156113b9576113b8611567565b5b601f19601f8301169050602081019050919050565b6000819050602082019050919050565b600081519050919050565b600081519050919050565b6000602082019050919050565b600082825260208201905092915050565b600082825260208201905092915050565b600082825260208201905092915050565b600061143f82611459565b9050919050565b6000819050611454826115a7565b919050565b600073ffffffffffffffffffffffffffffffffffffffff82169050919050565b6000819050919050565b600061148e82611446565b9050919050565b82818337600083830152505050565b60005b838110156114c25780820151818401526020810190506114a7565b838111156114d1576000848401525b50505050565b600060028204905060018216806114ef57607f821691505b6020821081141561150357611502611538565b5b50919050565b7f4e487b7100000000000000000000000000000000000000000000000000000000600052602160045260246000fd5b7f4e487b7100000000000000000000000000000000000000000000000000000000600052602260045260246000fd5b7f4e487b7100000000000000000000000000000000000000000000000000000000600052604160045260246000fd5b6000601f19601f8301169050919050565b600481106115b8576115b7611509565b5b50565b6115c481611434565b81146115cf57600080fd5b50565b600481106115df57600080fd5b50565b6115eb81611479565b81146115f657600080fd5b5056fea2646970667358221220d749f17fbd75e3ed94ea747265b7437eb192b7e40f2e48a49bcdc312eec11e0864736f6c63430008000033",
  "immutableReferences": {},
  "source": "// contracts/HealthcareMessaging.sol\r\n// SPDX-License-Identifier: MIT\r\npragma solidity ^0.8.0;\r\n\r\ncontract HealthcareMessaging {\r\n    enum Role { None, Patient, Doctor, Admin }\r\n\r\n    struct User {\r\n        address userAddress;\r\n        Role role;\r\n    }\r\n\r\n    struct Message {\r\n        address sender;\r\n        address receiver;\r\n        string content; // This should be encrypted off-chain and only decrypted client-side.\r\n        uint256 timestamp;\r\n    }\r\n\r\n    mapping(address => User) public users;\r\n    mapping(address => Message[]) public messages;\r\n\r\n    address public admin;\r\n\r\n    event UserRegistered(address indexed userAddress, Role role);\r\n    event MessageSent(address indexed from, address indexed to, uint256 timestamp);\r\n\r\n    modifier onlyAdmin() {\r\n        require(users[msg.sender].role == Role.Admin, \"Only admin can perform this action\");\r\n        _;\r\n    }\r\n\r\n    modifier onlyRegistered() {\r\n        require(users[msg.sender].role != Role.None, \"You must be a registered user\");\r\n        _;\r\n    }\r\n\r\n    constructor() {\r\n        admin = msg.sender;\r\n        users[admin] = User(admin, Role.Admin);\r\n        emit UserRegistered(admin, Role.Admin);\r\n    }\r\n\r\n    function registerUser(address userAddress, Role role) public onlyAdmin {\r\n        require(role != Role.None, \"Invalid role\");\r\n        users[userAddress] = User(userAddress, role);\r\n        emit UserRegistered(userAddress, role);\r\n    }\r\n\r\n    function sendMessage(address receiver, string memory content) public onlyRegistered {\r\n        require(users[receiver].role != Role.None, \"Receiver must be a registered user\");\r\n        messages[receiver].push(Message(msg.sender, receiver, content, block.timestamp));\r\n        emit MessageSent(msg.sender, receiver, block.timestamp);\r\n    }\r\n\r\n    function getMessages() public view onlyRegistered returns (Message[] memory) {\r\n        return messages[msg.sender];\r\n    }\r\n}\r\n",
  "sourcePath": "C:\\Users\\user\\desktop\\SmartContract\\HealthcareMessagingContract\\contracts\\HealthcareMessaging.sol",
  "compiler": {
    "name": "solc",
    "version": "0.8.0+commit.c7dfd78e.Emscripten.clang"
  },
  "schemaVersion": "3.4.16",
  "updatedAt": "2024-11-04T11:46:39.848Z",
  "networkType": "ethereum",
  "devdoc": {
    "kind": "dev",
    "methods": {},
    "version": 1
  },
  "userdoc": {
    "kind": "user",
    "methods": {},
    "version": 1
  }
}